{
  "address": "0x5FbDB2315678afecb367f032d93F642f64180aa3",
  "abi": [
    {
      "inputs": [
        {
          "internalType": "string",
          "name": "name",
          "type": "string"
        }
      ],
      "name": "create",
      "outputs": [],
      "stateMutability": "nonpayable",
      "type": "function"
    },
    {
      "inputs": [
        {
          "internalType": "uint256",
          "name": "id",
          "type": "uint256"
        }
      ],
      "name": "deleteId",
      "outputs": [],
      "stateMutability": "nonpayable",
      "type": "function"
    },
    {
      "inputs": [
        {
          "internalType": "uint256",
          "name": "id",
          "type": "uint256"
        }
      ],
      "name": "find",
      "outputs": [
        {
          "internalType": "uint256",
          "name": "",
          "type": "uint256"
        }
      ],
      "stateMutability": "view",
      "type": "function"
    },
    {
      "inputs": [],
      "name": "nextId",
      "outputs": [
        {
          "internalType": "uint256",
          "name": "",
          "type": "uint256"
        }
      ],
      "stateMutability": "view",
      "type": "function"
    },
    {
      "inputs": [
        {
          "internalType": "uint256",
          "name": "id",
          "type": "uint256"
        }
      ],
      "name": "read",
      "outputs": [
        {
          "internalType": "uint256",
          "name": "",
          "type": "uint256"
        },
        {
          "internalType": "string",
          "name": "",
          "type": "string"
        }
      ],
      "stateMutability": "view",
      "type": "function"
    },
    {
      "inputs": [
        {
          "internalType": "uint256",
          "name": "id",
          "type": "uint256"
        },
        {
          "internalType": "string",
          "name": "name",
          "type": "string"
        }
      ],
      "name": "update",
      "outputs": [],
      "stateMutability": "nonpayable",
      "type": "function"
    },
    {
      "inputs": [
        {
          "internalType": "uint256",
          "name": "",
          "type": "uint256"
        }
      ],
      "name": "users",
      "outputs": [
        {
          "internalType": "uint256",
          "name": "id",
          "type": "uint256"
        },
        {
          "internalType": "string",
          "name": "name",
          "type": "string"
        }
      ],
      "stateMutability": "view",
      "type": "function"
    }
  ],
  "transactionHash": "0xac9b88152e05a99d7ce15c8f79946b68ae3c34e6a76cac8e1d9ecf514c911942",
  "args": [],
  "numDeployments": 1,
  "solcInputHash": "ae83525076e19c9f0afa2a34baff918e",
  "bytecode": "0x60806040526001805534801561001457600080fd5b50610ca8806100246000396000f3fe608060405234801561001057600080fd5b506004361061007d5760003560e01c806361b8ce8c1161005b57806361b8ce8c146100ff578063b6a46b3b1461011d578063ed2e5a9714610139578063f745630f1461016a5761007d565b8063365b98b2146100825780633700bd57146100b35780633e530e5b146100cf575b600080fd5b61009c60048036038101906100979190610591565b610186565b6040516100aa92919061065d565b60405180910390f35b6100cd60048036038101906100c89190610591565b610242565b005b6100e960048036038101906100e49190610591565b610290565b6040516100f6919061068d565b60405180910390f35b61010761032e565b604051610114919061068d565b60405180910390f35b610137600480360381019061013291906107dd565b610334565b005b610153600480360381019061014e9190610591565b6103b3565b60405161016192919061065d565b60405180910390f35b610184600480360381019061017f9190610826565b6104a5565b005b6000818154811061019657600080fd5b90600052602060002090600202016000915090508060000154908060010180546101bf906108b1565b80601f01602080910402602001604051908101604052809291908181526020018280546101eb906108b1565b80156102385780601f1061020d57610100808354040283529160200191610238565b820191906000526020600020905b81548152906001019060200180831161021b57829003601f168201915b5050505050905082565b600061024d82610290565b905060008181548110610263576102626108e2565b5b906000526020600020906002020160008082016000905560018201600061028a91906104ea565b50505050565b600080600090505b6000805490508110156102ed5782600082815481106102ba576102b96108e2565b5b906000526020600020906002020160000154036102da5780915050610329565b80806102e590610940565b915050610298565b506040517f08c379a0000000000000000000000000000000000000000000000000000000008152600401610320906109d4565b60405180910390fd5b919050565b60015481565b6000604051806040016040528060015481526020018381525090806001815401808255809150506001900390600052602060002090600202016000909190919091506000820151816000015560208201518160010190816103959190610ba0565b505050600160008154809291906103ab90610940565b919050555050565b6000606060006103c284610290565b9050600081815481106103d8576103d76108e2565b5b906000526020600020906002020160000154600082815481106103fe576103fd6108e2565b5b906000526020600020906002020160010180805461041b906108b1565b80601f0160208091040260200160405190810160405280929190818152602001828054610447906108b1565b80156104945780601f1061046957610100808354040283529160200191610494565b820191906000526020600020905b81548152906001019060200180831161047757829003601f168201915b505050505090509250925050915091565b60006104b083610290565b905081600082815481106104c7576104c66108e2565b5b906000526020600020906002020160010190816104e49190610ba0565b50505050565b5080546104f6906108b1565b6000825580601f106105085750610527565b601f016020900490600052602060002090810190610526919061052a565b5b50565b5b8082111561054357600081600090555060010161052b565b5090565b6000604051905090565b600080fd5b600080fd5b6000819050919050565b61056e8161055b565b811461057957600080fd5b50565b60008135905061058b81610565565b92915050565b6000602082840312156105a7576105a6610551565b5b60006105b58482850161057c565b91505092915050565b6105c78161055b565b82525050565b600081519050919050565b600082825260208201905092915050565b60005b838110156106075780820151818401526020810190506105ec565b60008484015250505050565b6000601f19601f8301169050919050565b600061062f826105cd565b61063981856105d8565b93506106498185602086016105e9565b61065281610613565b840191505092915050565b600060408201905061067260008301856105be565b81810360208301526106848184610624565b90509392505050565b60006020820190506106a260008301846105be565b92915050565b600080fd5b600080fd5b7f4e487b7100000000000000000000000000000000000000000000000000000000600052604160045260246000fd5b6106ea82610613565b810181811067ffffffffffffffff82111715610709576107086106b2565b5b80604052505050565b600061071c610547565b905061072882826106e1565b919050565b600067ffffffffffffffff821115610748576107476106b2565b5b61075182610613565b9050602081019050919050565b82818337600083830152505050565b600061078061077b8461072d565b610712565b90508281526020810184848401111561079c5761079b6106ad565b5b6107a784828561075e565b509392505050565b600082601f8301126107c4576107c36106a8565b5b81356107d484826020860161076d565b91505092915050565b6000602082840312156107f3576107f2610551565b5b600082013567ffffffffffffffff81111561081157610810610556565b5b61081d848285016107af565b91505092915050565b6000806040838503121561083d5761083c610551565b5b600061084b8582860161057c565b925050602083013567ffffffffffffffff81111561086c5761086b610556565b5b610878858286016107af565b9150509250929050565b7f4e487b7100000000000000000000000000000000000000000000000000000000600052602260045260246000fd5b600060028204905060018216806108c957607f821691505b6020821081036108dc576108db610882565b5b50919050565b7f4e487b7100000000000000000000000000000000000000000000000000000000600052603260045260246000fd5b7f4e487b7100000000000000000000000000000000000000000000000000000000600052601160045260246000fd5b600061094b8261055b565b91507fffffffffffffffffffffffffffffffffffffffffffffffffffffffffffffffff820361097d5761097c610911565b5b600182019050919050565b7f557365727320646f6573206e6f74206578697374732100000000000000000000600082015250565b60006109be6016836105d8565b91506109c982610988565b602082019050919050565b600060208201905081810360008301526109ed816109b1565b9050919050565b60008190508160005260206000209050919050565b60006020601f8301049050919050565b600082821b905092915050565b600060088302610a567fffffffffffffffffffffffffffffffffffffffffffffffffffffffffffffffff82610a19565b610a608683610a19565b95508019841693508086168417925050509392505050565b6000819050919050565b6000610a9d610a98610a938461055b565b610a78565b61055b565b9050919050565b6000819050919050565b610ab783610a82565b610acb610ac382610aa4565b848454610a26565b825550505050565b600090565b610ae0610ad3565b610aeb818484610aae565b505050565b5b81811015610b0f57610b04600082610ad8565b600181019050610af1565b5050565b601f821115610b5457610b25816109f4565b610b2e84610a09565b81016020851015610b3d578190505b610b51610b4985610a09565b830182610af0565b50505b505050565b600082821c905092915050565b6000610b7760001984600802610b59565b1980831691505092915050565b6000610b908383610b66565b9150826002028217905092915050565b610ba9826105cd565b67ffffffffffffffff811115610bc257610bc16106b2565b5b610bcc82546108b1565b610bd7828285610b13565b600060209050601f831160018114610c0a5760008415610bf8578287015190505b610c028582610b84565b865550610c6a565b601f198416610c18866109f4565b60005b82811015610c4057848901518255600182019150602085019450602081019050610c1b565b86831015610c5d5784890151610c59601f891682610b66565b8355505b6001600288020188555050505b50505050505056fea264697066735822122043837cebe93f1a5b94be509ebae362f11ca3665ac321b5a7e42f5402ec1bc85264736f6c63430008110033",
  "devdoc": {
    "kind": "dev",
    "methods": {},
    "version": 1
  },
  "userdoc": {
    "kind": "user",
    "methods": {},
    "version": 1
  },
  "storageLayout": {
    "storage": [
      {
        "astId": 10,
        "contract": "contracts/Crud.sol:Crud",
        "label": "users",
        "offset": 0,
        "slot": "0",
        "type": "t_array(t_struct(User)6_storage)dyn_storage"
      },
      {
        "astId": 13,
        "contract": "contracts/Crud.sol:Crud",
        "label": "nextId",
        "offset": 0,
        "slot": "1",
        "type": "t_uint256"
      }
    ],
    "types": {
      "t_array(t_struct(User)6_storage)dyn_storage": {
        "base": "t_struct(User)6_storage",
        "encoding": "dynamic_array",
        "label": "struct Crud.User[]",
        "numberOfBytes": "32"
      },
      "t_string_storage": {
        "encoding": "bytes",
        "label": "string",
        "numberOfBytes": "32"
      },
      "t_struct(User)6_storage": {
        "encoding": "inplace",
        "label": "struct Crud.User",
        "members": [
          {
            "astId": 3,
            "contract": "contracts/Crud.sol:Crud",
            "label": "id",
            "offset": 0,
            "slot": "0",
            "type": "t_uint256"
          },
          {
            "astId": 5,
            "contract": "contracts/Crud.sol:Crud",
            "label": "name",
            "offset": 0,
            "slot": "1",
            "type": "t_string_storage"
          }
        ],
        "numberOfBytes": "64"
      },
      "t_uint256": {
        "encoding": "inplace",
        "label": "uint256",
        "numberOfBytes": "32"
      }
    }
  }
}